:10000000005000206D270000B38B00009D270000EA
:100010009D2700009D2700009D2700000000000094
:10002000000000000000000000000000912200001D
:100030009D2700000000000021220000518B0000DD
:10004000F1250000F1250000F1250000F125000058
:10005000F1250000F1250000F1250000F125000048
:10006000F1250000F1250000F1250000F125000038
:10007000F1250000F1250000F1250000F125000028
:10008000F1250000F1250000F1250000F125000018
:10009000F1250000F1250000F1250000F125000008
:1000A000F1250000F1250000F1250000F1250000F8
:1000B000F1250000F1250000F1250000F1250000E8
:1000C000F1250000F1250000F1250000F1250000D8
:1000D000F1250000F1250000F1250000F1250000C8
:1000E000F1250000F1250000F1250000F1250000B8
:1000F000F1250000F1250000F1250000F1250000A8
:100100000A4BC0F30722C1B29A5C5B5C1344372BE5
:1001100009DC0C2206495A438B188A5890420CBFBE
:100120001846002070470020704700BFB4B8000098
:1001300080570020F8B5074C06460F460025236877
:1001400013B139462046B0470135382D04F10C046F
:10015000F5D1F8BD8057002000000000000000002D
:10016000000000000000000000000000000000008F
:10017000000000000000000000000000000000007F
:10018000000000000000000000000000000000006F
:10019000000000000000000000000000000000005F
:1001A000000000000000000000000000000000004F
:1001B000000000000000000000000000000000003F
:1001C000000000000000000000000000000000002F
:1001D000000000000000000000000000000000001F
:1001E000000000000000000000000000000000000F
:1001F00000000000000000000000000000000000FF
:1002000053B94AB9002908BF00281CBF4FF0FF317D
:100210004FF0FF3000F06EB9ADF1080C6DE904CE7F
:1002200000F006F8DDF804E0DDE9022304B07047D1
:100230002DE9F047089D0E4604468C46002B40F001
:1002400081808A42174645D9B2FA82F24AB1C2F198
:10025000200106FA02F320FA01F1974041EA030C6B
:1002600094404FEA174E230CBCFBFEF6B9B20EFBCE
:1002700016CC43EA0C4306FB01F0984209D9FB185F
:1002800006F1FF3C80F01581984240F21281023E57
:100290003B441B1AA4B2B3FBFEF00EFB103344EA3E
:1002A000034400FB01F1A14209D93C1900F1FF33DD
:1002B00080F00181A14240F2FE8002383C44641A81
:1002C00040EA064000211DB1D4400023C5E90043A7
:1002D000BDE8F08702B9FFDEB2FA82F2002A4FD100
:1002E000CB1B4FEA174E1FFA87F80121B3FBFEFC28
:1002F000260C0EFB1C3346EA034608FB0CF3B34204
:1003000007D9BE190CF1FF3002D2B34200F2EB80E4
:100310008446F61AA3B2B6FBFEF00EFB106643EA63
:10032000064408FB00F8A04507D93C1900F1FF334B
:1003300002D2A04500F2D2801846A4EB080440EA9D
:100340000C40C0E78B4208D9002D00F0AF8000219F
:10035000C5E900060846BDE8F087B3FA83F1002935
:1003600049D1B34202D3824200F2BB80841A66EBC9
:10037000030301209C46002DAAD0C5E9004CA7E745
:10038000C2F120039740D8409140DE404FEA174E1B
:1003900008434FEA104CB6FBFEF11FFA87F80EFB3C
:1003A00011664CEA064601FB08F3B34204FA02F474
:1003B00009D9BE1901F1FF3C80F08E80B34240F2B2
:1003C0008B8002393E44F31A86B2B3FBFEF00EFB7B
:1003D000103346EA034600FB08F3B34207D9BE19BF
:1003E00000F1FF3C74D2B34272D902383E44F31A92
:1003F00040EA01417AE7C1F1200703FA01F422FA49
:1004000007F31C4320FA07F906FA01F34FEA144CEC
:10041000FE4049EA03094FEA1943B6FBFCFE1FFA06
:1004200084F80CFB1E6643EA06460EFB08FAB2454A
:1004300002FA01F200FA01F308D9A6190EF1FF3011
:1004400048D2B24546D9AEF1020E2644A6EB0A06C2
:100450001FFA89F9B6FBFCF00CFB106649EA064668
:1004600000FB08F8B04507D9A61900F1FF3C2DD2D2
:10047000B0452BD90238264440EA0E40A6EB0806C8
:10048000A0FB02894E45C446CE4618D315D075B39D
:10049000B3EB0C0266EB0E0606FA07F722FA01F33D
:1004A000CE401F43C5E90076002111E729462846C2
:1004B0000EE76646EDE6184601E74345E7D2B8EB9E
:1004C000020C69EB04040138A646E0E76046D3E776
:1004D00060468CE78646B9E7614674E702383C44DB
:1004E0002BE7084647E7ACF1020C3E4411E72946EA
:1004F000EEE600BF704700BF10B50D480D4C07F089
:1005000098FA206010B94FF0FF3010BD0B2107F0B2
:10051000A0FA0028F7DB084807F08BFA20600028D3
:10052000F1D00E2107F095FAC01740B2EDE700BFF9
:10053000CCA3000038000020D3A3000010B50C4667
:1005400028B1012818D04FF0FF34204610BD1448C0
:1005500007F06FFA134B18600028F4D0C3681B68CB
:100560001A0544BFB4FA84F464094FF40061A4B1DD
:1005700007F093FA0024E8E70B4807F05AFA094B12
:1005800018600028DFD0C3681B685B0444BFB4FA5E
:1005900084F464094FF48041E9E707F039FAD4E7BD
:1005A000CCA3000038000020D3A3000008B5044B02
:1005B000049A9B68C9B29A67C0B2FFF7BFFF08BD33
:1005C000080400202DE970418FB0FFF795FF01214D
:1005D000002007F07DFAC1B2184807F009FB18485F
:1005E00007F006FB07F06AFAA0B1002403210423F8
:1005F000CDE90A13CDE90844CDE90C44114812496C
:10060000124B4FF4805208AD8F2603DF00200FB04D
:10061000BDE8708100220023CDE9062303230422D4
:10062000CDE90332CDE901000090084B06490548A9
:100630004FF4805208F0BDFFE8E700BFDAA30000E6
:1006400071A600003C000020A8280020257B0000A7
:100650000B6801330B60014B1B681847A056002044
:100660002DE9F04F85B09B460E9CDFF89090012C51
:10067000B8BF0124012B0CBF3023202315460646AA
:100680008A46029301274FF00A080022B5FBF9F3CE
:1006900001930AB9A9451FD8019B514603F13000C7
:1006A000B04701370122019B08F1FF38B8F1010F73
:1006B00009FB13554FF00A03B9FBF3F9E6D1514694
:1006C00005F13000B047BBF1030F02D1E41B002C51
:1006D0000EDC05B0BDE8F08F4445E4DBBBF1020F52
:1006E000E1D8029803925146B0470137039ADAE7FE
:1006F00051462020B047013CE9E700BF00CA9A3BC1
:10070000014B1860704700BFA05600202DE9F04F44
:100710008DB01C460027531E05468B4603934FF0B1
:10072000FF39B846002605E06EB9252800F0718132
:100730005946A847039B13F8010F03930028F3D1F0
:100740000DB0BDE8F08F7A280AD8622810D830287A
:1007500054D045D8252800F05A812D2800F05F811B
:1007600059462520A847039B18785946A847D9E73A
:10077000A0F16303172BF3D801A252F823F000BFB6
:10078000070A00004B080000610700006107000035
:10079000610700002D0800004B0800006107000001
:1007A000610700002D0800006107000061070000DC
:1007B00061070000ED08000061070000610700000C
:1007C000D709000061070000BB08000061070000B6
:1007D00061070000E9070000610700002D08000024
:1007E00039281AD95828BBD1039B1B78702B40F0AD
:1007F000888054F8043B0693002290E0B9F1000F82
:100800000EDAB8F1000F00F00D81A0F13009B8F157
:10081000000F08BF4FF002088CE7B9F1000FF4DBBE
:100820000A2303FB0909A9F13009F0E7682803D17D
:10083000682F06D148277DE76C2802D16C2F00F085
:10084000F480002F8CD1074674E77A2F02D154F838
:10085000046B21E06C2FFAD04C2FF8D1073424F030
:100860000704F4E80223CDE90423049B13F10041BB
:10087000059B089143F100010991DDE9082300215E
:100880004FF0FF30994208BF904204D259462846A3
:1008900007F068F946E7049E002E05DA59462D2038
:1008A000A847764209F1FF39CDF800904346324619
:1008B00059462846FFF7D4FE34E77A2F02D154F880
:1008C000042B0FE06C2FFAD04C2FF8D1073424F012
:1008D0000704F4E8022300214FF0FF30994208BFDB
:1008E0009042D3D3CDF800904346E1E759463020FB
:1008F000A84759467820A8474FF008094FF001084B
:1009000072E76C2F3FF475AF4C2F7FF472AFE31D8D
:1009100023F007031C4654F8082B06925A6800215E
:100920001023049107914FF0400AAAF1040A069996
:10093000CAF1200EAAF1200C21FA0AF002FA0EFEEA
:1009400040EA0E0022FA0CFC40EA0C0010F00F0006
:1009500007D1079911B9BAF1000F25D14FF0300C2A
:1009600005E009288CBF4FF0570C4FF0300C604465
:10097000594640B20A920793A847049B0A9A01334A
:100980000493079BBAF1000F23D1B8F1030F7FF452
:10099000C9AE049BC3EB4906002E7FF7C3AE594690
:1009A0002020A847013EF7E7591E99450A9107DB29
:1009B000B8F1010F06D10B9259463020A8470B9A87
:1009C0000A9BB2E7B8F1020FFAD10B9259462020E8
:1009D000F4E70796A9E754F8046BB24653461AF8B1
:1009E000010B68B9B8F1030F21D19E1BA9EB0606D4
:1009F000002E7FF797AE59462020A847013EF7E723
:100A00005946A847EAE754F8040B5946AEE659465A
:100A1000ACE63746B0464FF0FF3901268AE64FF084
:100A2000030887E64FF0010884E64C2782E6064675
:100A300080E600BF70B5054E04464518AC4200D1B3
:100A400070BD336814F8010B9847F7E7A0560020F3
:100A500030B58BB004460D4607F078F888B12822EF
:100A60000021684608F025F92B460A4822466946C7
:100A7000FFF74CFE019B13B1684607F094F80BB0EA
:100A800030BD00900B46044822466946FFF73EFE03
:100A9000F5E700BFCF7B000051060000F0B51B4F0B
:100AA00087B0BB680E9A9A67002205460E4608F08A
:100AB000A0F8044610B307F049F8154C154BE41A9A
:100AC000E408A401144B44F0010458B1CDE90063DB
:100AD000124A13492B46204607F0ACFBBB68986FBF
:100AE00008F059F80D4A0E48CDE90225CDE9046316
:100AF0000422234602A907F019FCEFE728463146F5
:100B0000FFF798FF204607B0F0BD00BF08040020A3
:100B1000709D0000589D00008CAA000043A40000B6
:100B2000FDA3000030B585B0CDE9010104460025E4
:100B30000548039501A9FFF7E9FDDDE90230984278
:100B4000B8BF255405B030BD817B000070B50122CF
:100B500086B00421054608F04CF8002814BF012691
:100B6000002613D007F0D3FA0F4C104BE41AE40818
:100B7000A4010F4B44F00104042250B1CDE900233D
:100B80000C490D4A2B46204607F054FB304606B070
:100B900070BD09490748CDE90215CDE9042302A932
:100BA000234607F0C3FBF1E7709D0000589D00004D
:100BB00054A40000FDA300005AA400000A4B70B525
:100BC0009B681546069A9A6704460E46FFF7BEFFD5
:100BD00030B932462B462046BDE8704007F0A1BA36
:100BE0006FF00C0070BD00BF080400202DE95041DB
:100BF000FFF786FAC0B183790C2B15D182689AB1C0
:100C0000D3688BB10B4B91689B6899420FD107F069
:100C10007EFA28B110466E2603DF0020BDE8508121
:100C2000104604F0C7FAF8E76FF01500F6E74FF04A
:100C3000FF30F3E708040020084B10B59B68049AC6
:100C40009A670446FFF782FF20B92046BDE81040AE
:100C5000FFF7CCBF6FF00C0010BD00BF08040020F0
:100C60002DE970411C491D488FB0002208F058FD45
:100C700007F08EFA0E23C8B10024CDE90A34CDE97D
:100C80000844CDE90C4416481649174B4FF47872C6
:100C900008AD8F2603DF07F07BFAC0B11048134977
:100CA000952603DF00200FB0BDE8708100240025E9
:100CB000CDE90330CDE901000090CDE906450A4BAE
:100CC000084907484FF4787208F073FCE3E70749D6
:100CD000034808F069FCE5E7BF8100000000002040
:100CE000FC00002000480020E51000006FA4000078
:100CF0002DE9484107F04CFA20B10548852603DF6D
:100D0000BDE848810248BDE8484105F0BFBA00BFD0
:100D10004857002008B500F0DBFC094807F022FA2C
:100D2000042328220749084808F095F9074B084A88
:100D30001A604FF40040BDE8084000F031BF00BF2A
:100D4000D800002000520020E0000020A45600201F
:100D5000B7810000F8B50F4BBFF35B8F002553E858
:100D6000007F43E80052002AF9D1BFF35B8F0A4CA1
:100D70000A4E361B3611B54200DBF8BD63685B795D
:100D80002BB12368DB6813B13946204698470135FB
:100D90001034F0E7D0000020909D0000B09D0000CE
:100DA000034B029A9B689A67024B1868704700BF12
:100DB00008040020CC000020064BBFF35B8F53E8F3
:100DC000002F013243E800210029F8D1BFF35B8FE7
:100DD000704700BFD0000020044A054B9B1AB1EBBE
:100DE000D30F34BF52F8310000207047589D0000E7
:100DF000909D000038B5094B4268094CC31A1B117D
:100E00000133137143681960217801225A71154624
:100E100009B9FFF76DFF257038BD00BF909D000038
:100E2000A838002070B5114BBFF35B8F53E8005F0B
:100E30006A1C43E800210029F8D1BFF35B8F2DB96C
:100E40000B4C0C4E361B3611B54200DB70BD237BBC
:100E500043B123685B6903B198470422002120460F
:100E6000FFF7C8FF01351034EEE700BFD4000020C3
:100E7000909D0000B09D0000184B984237B5044685
:100E800002D3174B984223D307F082F900BB1548D1
:100E90000022002301A904F049F80546D8B901222F
:100EA000019BBFF35B8F53E8001F43E8002000283D
:100EB000F9D1BFF35B8F019821461F22043007F060
:100EC000AEFE019C7E2384F8233084F82450043441
:100ED000204603B030BD044CFAE700BF609B000021
:100EE000B4B90000E000002077A4000048B1054B31
:100EF000984205D3A03398422CBF002001207047B0
:100F0000002070470052002007B504380190BFF35D
:100F10005B8F50E8003F5A1E40E800210029F8D1BD
:100F2000BFF35B8F012B03D1034801A904F030F814
:100F300003B05DF804FB00BFE00000202DE9F04F96
:100F4000534B1B7885B0044603B960B34FF02003C0
:100F5000EFF3118683F31188BFF36F8F4D4807F0CD
:100F600011F9054686F31188BFF36F8F78B1BFF38F
:100F70005B8F494B53E8002F013A43E800210029D9
:100F8000F8D1BFF35B8F94B1284607F079FA24B902
:100F9000424B1B680BB1FFF7DDFE3E4807F0F0F84F
:100FA000041E18BF0124204605B0BDE8F08F3C4B5D
:100FB0001B78D3B92B7ADB0717D407F074FA804675
:100FC000284607F03BFA0146404607F0FAF8354B51
:100FD000354ADFF8F0900393D21A4FEAD20A334A27
:100FE000D21A06464FEAD20B36B9314E314FBF1BEB
:100FF0003F114FF0000847E0B6FA86F7C7F11F0728
:101000003946284607F01DFA2B4B9842014602D379
:101010002A4B98421FD30846FFF768FF0246D0B913
:10102000274B994217D06B89BAEB931F4FEA931164
:1010300084BF039B53F8312007F0AAF84FEA8B1CBA
:101040004CF0010C68B11346CDF800803A46494691
:10105000604607F0EFF8012303FA07F726EA0706D0
:10106000C2E7ADF800C043463946484607F042F9AA
:10107000F1E773685B7923B1336829461B68304612
:10108000984708F101081036B845F2DB7CE700BF4D
:10109000A8380020D8000020CC000020D00000207C
:1010A000A9380020589D0000909D0000609D000020
:1010B000909D0000B09D0000609B0000B4B900004E
:1010C00077A4000091A4000007B5054B069A9B6821
:1010D00001909A67C0B2FFF731FF03B05DF804FBDF
:1010E000080400202DE95041FFF79CFE07F050F85E
:1010F000C8B15F2603DF114B186028B1104B1B6885
:10110000092B01DDFFF7F4FD0E4C07F0A0F80028D5
:10111000FBD107F03DF848B14FF0FF3120460A46B9
:10112000882603DFF1E704F0BBFFE4E74FF0FF326E
:101130004FF0FF33204605F001F9E6E78C0100206F
:10114000CC00002048570020F8B50E4F3D786DB90F
:101150000D4C0E4EFFF766FE361B3611B54206DB10
:1011600007F075F80028FBD101233B70F8BD6368D8
:101170005B791BB1236820461B6998470135103401
:10118000ECE700BFA9380020909D0000B09D000052
:1011900008B5044B049A9B689A67FFF7D5FF0020B7
:1011A00008BD00BF08040020334B2DE977411B68C0
:1011B000418104469847314DE060BFF35B8F55E8AD
:1011C000003F013345E80032002AF8D1BFF35B8FBE
:1011D0004FF02003EFF3118683F31188BFF36F8F75
:1011E0002748214606F0C2FF86F31188BFF36F8FB0
:1011F000244B1A7882B14FF02003EFF3118483F36C
:101200001188BFF36F8F07F022F884F31188BFF3C2
:101210006F8F03B0BDE870811B492B6809680029F6
:10122000F7D0012B19D106F0B3FF38B117484FF4AE
:10123000004113461446A02603DFEAE700220023FC
:10124000CDE9002311484FF40042002305F01EFEB3
:10125000DFE70E4808F071FA08E00A2BD9D106F052
:1012600097FF0028F5D00948A32603DF03B0BDE8A7
:101270007041FFF73DBD00BFA4560020CC00002008
:10128000D8000020A93800208C0100200000002098
:1012900010B52D4C002845D006F07AFF2B4B1B1BB8
:1012A000DB089B0143F0010348B1294A294918464C
:1012B00006F0C0FF284B9B68986F07F06CFC244930
:1012C00024481A4606F0E9FFF4E7214923481A4664
:1012D000F8E71F4922481A46F4E71D4921481A46F3
:1012E000F0E7042B2DD906F053FF184B1B1BDB082E
:1012F0009B0143F001030028EFD0154A1949D6E7B6
:101300001949091BB2EBD10FEBD306F041FF0F4B8C
:101310001B1BDB089B0143F001030028D9D00C4ABA
:101320000F49C4E70029EBD006F032FF074B1B1B27
:10133000DB089B0143F001030028C6D0044A07499B
:10134000B5E7184610BD00BF589D0000709D000015
:10135000E4A50000D0A400000804002025A500009A
:1013600054A5000083A50000909D000030B4034CFC
:10137000049DA468A56730BCFFF78ABF080400205D
:10138000F0B5C0F30203013BDBB2032B0D464A4E1E
:1013900089B00446C0F3C202C0F387117CD906F0BD
:1013A000F7FE464B9B1BDB089B0143F0010348B152
:1013B000434A4449184606F03DFF434B9B68986FEB
:1013C00007F0E9FB3E493F481A4606F066FFF4E79E
:1013D0003B493E481A46F8E739493D481A46F4E782
:1013E00037493C481A46F0E7354A3B48CDE90425E1
:1013F000CDE906730422234604A906F097FFDCE733
:101400002846FFF739FD22460146344806F045FFDD
:1014100009B0F0BD3946284607F0EBFB0028EFD0B5
:10142000264C06F0B5FEA41BE408A4012C4B44F0A6
:1014300001040028D8D0CDE90073214A26492B4663
:10144000204606F0F7FEB8E703AA2021284601F05F
:101450007BF9039A0746002ADCD006F099FE174B69
:101460009B1BDB089B0143F001030028B8D0144A02
:1014700018499FE71B4B9B1BB1EBD30FE4D306F03E
:1014800087FE0E4B9B1BDB089B0143F001030028EA
:10149000A2D00B4A0E498DE7002AEBD006F078FE69
:1014A000064B9B1BDB089B0143F0010300288FD0F8
:1014B000034A06497EE700BF589D0000709D00006A
:1014C000FAA5000083A500000804002025A500005F
:1014D00054A50000AEA50000FDA30000A3B50000C8
:1014E0008CAA0000909D000008B5044B049A9B68EC
:1014F0009A67FFF745FF002008BD00BF08040020E1
:101500002DE9F0431F4600F00703042BDFF8A48108
:1015100089B004460D46164603D84207C3B240F0D0
:10152000A38006F035FE594BA3EB0803DB089B01B3
:1015300043F0010348B1564A5649184606F07AFE70
:10154000554B9B68986F07F026FB514951481A4646
:1015500006F0A3FEF4E74E4950481A46F8E74C4916
:101560004F481A46F4E74A494E481A46F0E7484AB7
:10157000CDF81890CDE9042507934B482346042263
:1015800004A906F0D3FEDBE7414A0697CDE904261D
:10159000F2E72846FFF770FC23463A46314606F04C
:1015A000D0FE09B0BDE8F0833946304607F021FB94
:1015B0000028EED0354C06F0EBFDA4EB0804E4085F
:1015C000A4013A4B44F001040028DDD0CDE90073BA
:1015D000334615E04946284607F00BFB0246002833
:1015E000E2D02A4C06F0D4FDA4EB0804E408A401E0
:1015F0002E4B44F001040028B9D0CDE900932B46CE
:10160000234A2949204606F015FE99E703AA20211E
:10161000284601F099F8039A8146002ADAD006F0AC
:10162000B7FD1A4BA3EB0803DB089B0143F0010352
:10163000002898D0164A1B497FE71D4AC4F3891336
:10164000A2EB0802B3EBD20FE0D306F0A1FD0F4BE3
:10165000A3EB0803DB089B0143F0010300283FF4E0
:101660007EAF0B4A0E4968E713F0380FE5D006F05D
:101670008FFD064BA3EB0803DB089B0143F001033E
:1016800000283FF468AF024A044956E7709D000005
:1016900018A6000083A500000804002025A500006E
:1016A00054A50000AEA50000FDA300008CAA000018
:1016B000909D0000589D000038B5044C069DA4681C
:1016C000A567FFF71DFF002038BD00BF08040020FC
:1016D0002023024902481A4607F0BDBCA052002050
:1016E000900100202DE9F3410023144F01930125BF
:1016F0008DF80350EFF30583CBB9EFF31483DB07C9
:1017000015D5DDF80300B12603DF041E18BF012440
:10171000FFF752FB0022002301A9384603F006FC24
:1017200008B1002CE4D1019802B0BDE8F0819DF829
:101730000300FFF703FC0446EAE700BF9001002026
:1017400007B50023019307480022002301A903F0F5
:10175000EDFB10B1FFF7C6FF0190019803B05DF8F3
:1017600004FB00BF90010020F0B5037A467A85B0F3
:10177000DC0701904FEA16162BD456B300242546F9
:101780000198294606F05DFE0746FFF7AFFB70B1F2
:1017900034B9019B3146186906F013FD044648B17F
:1017A00024FA05F3D80702D53846FFF7ADFB01351B
:1017B000AE42E5D8019B1A7A920704D55B690F4CBB
:1017C0000393039B93B90D4801A903F0E1FB05B016
:1017D000F0BD837A5907EDD004692046FFF786FBF8
:1017E0000028E7D02046FFF78FFBE3E71D6803A939
:1017F000204603F0CDFB0395E3E700BF90010020F6
:101800000EB403B503AB014653F8042B044801930F
:10181000FEF77CFF002002B05DF804EB03B07047D8
:10182000F58800002DE9F04F85B011F002049046D4
:101830009DF8387006461A4601F0010901F00805C6
:1018400007D011F0440F37D13249FFF7D9FF0146D5
:101850000C46B9F1000F0AD02F4B304953F827201E
:101860002F4B3046002A08BF1A46FFF7C9FF3DB18B
:101870002C4B2D4953F827203046FFF7C1FF054672
:10188000B8F1000F43D0012303FA07F7274B17F0F5
:10189000100F274F18BF1F46BDF840109DF83C00A1
:1018A000FFF79AFA394602463046FFF7A9FF284467
:1018B000204405B0BDE8F08F1E4B19680029C7D041
:1018C0001D4B4FF4616E1B68B2FBF3F34FF47A7C4F
:1018D000B3FBF1F4B4FBFEF20EFB124E01FB143429
:1018E0000CFB04F44FF03C0AB4FBF1FB01FB1B447E
:1018F0000CFB04F4BEFBFAF3B4FBF1F1CDE901B14A
:101900000AFB13E100910D49FFF77AFF9FE7084FAB
:10191000C2E700BF45A60000B89D0000A3B50000C7
:1019200037A60000CC9D00006AA6000041A600007A
:101930003CA60000AC010020B00100204EA6000033
:1019400038B50C46E107054603D5084A0849FFF7B4
:1019500057FFE20608D4A30628464CBF05490649AE
:10196000BDE83840FFF74CBF38BD00BF37A60000C8
:10197000A3B5000071A6000070A600002DE9F04795
:101980001D46089B1746DA0604460E4605D49906FE
:101990004CBF2A492A49FFF733FFDFF8AC904FF0DC
:1019A0000008A8452ADBDFF8A480DFF8A490DFF860
:1019B00098A00025BD422FD2725D49462046FFF710
:1019C0001FFF0135102D20D11E49DFF87C80DFF884
:1019D00084902046FFF714FF0025AF4228D9725D9E
:1019E000A2F120035F2B28BF2E2249462046FFF795
:1019F00007FF0135102D14D1BDE8F0874946204678
:101A0000FFF7FEFE08F10108CBE76A07D2D1514685
:101A10002046FFF7F5FECDE741462046FFF7F0FEF2
:101A2000CFE76B07D9D141462046FFF7E9FED4E75F
:101A300041462046FFF7E4FEDBE700BF71A6000049
:101A400070A600007DA600007BA6000079A600001D
:101A500073A600007FA600002DE9F0478B7A13F0F3
:101A6000070817468AB00A7A05460E4620D04989EB
:101A7000C3F3C2038909D243CDE900830291F3681D
:101A800002F001023946FFF7CDFE8146347AE44385
:101A900014F001040ED02946304606F0C1FDB8F11D
:101AA000000F2BD0424639462846FFF749FF25E074
:101AB000C146EBE7B8F1000F26D12746EB68069345
:101AC00006AA3B46A968304606F096FD069A6B6862
:101AD0001A603AB1AB68134413F8014CA4F10A033D
:101AE0005C425C41284606F0F8FE069B1F44002B32
:101AF000E4D11CB113492846FFF782FE284606F0C0
:101B0000ECFE0AB0BDE8F087304606F0CCFC0E498A
:101B100002462846FFF774FE4FF0100A05AA234636
:101B200006A93046CDF814A006F066FD059A002AF5
:101B3000B8D04B46009706A92846FFF71FFF059B24
:101B40001C44EBE782A60000A3B5000073B5D0E902
:101B500000435D680F4A42F20F738B4228BF0B4669
:101B60006846052106F051F82B4606460A492046EC
:101B70000B2206F048FD2B4632466946204606F009
:101B800042FD06492B461B22204606F03CFD02B0D2
:101B900070BD00BFFAA30000C0A60000A4A600000C
:101BA000084A10B50123084C13600021A04204D854
:101BB00001B11360054B186010BD40085B000121A6
:101BC000F4E700BFB001002040420F00AC0100204C
:101BD000014806F082BE00BFF89D00000148FFF7F3
:101BE000B5BF00BFF89D000010B508460C4606F0D2
:101BF00018FC054821460F22FFF72EFF2046BDE8BE
:101C0000104006F03DBC00BFF89D00002DE94841A2
:101C1000EFF3058353B9EFF31483DB0706D50548CB
:101C2000272603DF044B5860BDE84881014802F0D5
:101C30006DFFF7E7CCA60000BC010020014B01229C
:101C40001A707047BB380020024B034801221A70FB
:101C500006F043BEBC380020209E00000148FFF77C
:101C600075BF00BF209E000010B508460C4606F068
:101C7000D8FB054821460F22FFF7EEFE2046BDE8BF
:101C8000104006F0FDBB00BF209E00002DE948413A
:101C90000F4B197871B106F06DFE28B141F2883012
:101CA0005E2603DFBDE8488141F28830BDE8484147
:101CB00007F078BC06F05EFE18B1A420892603DF89
:101CC000F0E7A420BDE84841002104F063B900BF5B
:101CD000BC3800202DE9F74FDFF8B4A02A4F814629
:101CE0000D460424D3469AF8003043B906F042FE6C
:101CF00000B34FF0FF3138460A466D2603DF2A460F
:101D00004946002000F01AFA9BF8003001902BB9E8
:101D100006F030FEB0B138466E2603DF019B1B4E45
:101D20002BB3012333709BF800309BB9284603B0D6
:101D3000BDE8F08F4FF0FF324FF0FF33384603F02D
:101D400087F9DCE7384603F035FAE7E75CB9347029
:101D50004FF0FF34002000F03DFA0028E6D0337841
:101D6000002BF3D1E2E7013CFFF790FFF2E7337875
:101D700013B1013C04D134703378002BB3D1D5E7D3
:101D8000FFF784FFF8E700BF6C570020BB38002046
:101D9000BC3800200A2838B5064D044603D128680F
:101DA0000D2106F0F1FD2868E1B206F0EDFD2046B8
:101DB00038BD00BFDC0100202DE94841EFF3058369
:101DC0008BB9EFF31483DB070DD50948272603DF12
:101DD000084B1860084801F071FA0748FEF790FCBC
:101DE0000020BDE84881024802F090FEF0E700BF05
:101DF000CCA60000DC010020951D0000F8B5134EB4
:101E00000546F16806F0DAFD0C2404FB05140123F5
:101E100063724FF02003EFF3118183F31188BFF356
:101E20006F8F23682BB160681A682260834208BFF5
:101E3000626081F31188BFF36F8F03B9F8BDD3E9F6
:101E4000017229463046B847E3E700BFD456002068
:101E5000154B07B51A6882B14FF08042D2F80423BF
:101E6000D1070AD500221A601B680093009B0F4B14
:101E7000DB68587A08B9FFF7C1FF0D4B1A6882B1C9
:101E80004FF08042D2F8042392070AD500221A604C
:101E90001B680193019B012003B05DF804EBFFF781
:101EA000ADBF03B05DF804FB00010040D456002034
:101EB00004010040821C084B22F07F42C3F84025F9
:101EC000D3F80425904200D17047D3F80405821C52
:101ED00022F07F42F2E700BF00100140044B0022D5
:101EE00082B01A601B680193019B02B0704700BF6B
:101EF0004011014008B5FFF7F1FF074B074AD3F83F
:101F000040051368C01A20F07F4003441360BDE809
:101F1000084004F0DBBE00BF00100140F8010020C3
:101F20002DE97841EFF305834BBBEFF31483DB0717
:101F300025D51648272603DF28B38368144D1B6870
:101F4000012100249847C5F80845FFF7C7FF114B4A
:101F50004FF40032C3F880214FF48033C5F80433C6
:101F600022460121112000F0DBF9112000F0C8F910
:101F7000094A0123136020462B60BDE8788103489D
:101F800002F0C4FDD8E74FF0FF30F6E7FAA60000F4
:101F90000010014000E100E0081001402DE9784107
:101FA000304B314C1968D4F80425304D521AB0F139
:101FB000FF3F08BF2846160222F07F433BD401387A
:101FC00020EAE070A842A8BF284601334FF48036CB
:101FD0001844C4F80863A84294BF0D184D19D4F8EA
:101FE0000405D4F84015FFF779FF091A21F07F4165
:101FF00020F07F430129C4F84035C4F844630BD175
:10200000EFF30583CBB9EFF31483DA0715D50F206F
:102010005E2603DFFFF762FF154B4FF40032C3F873
:102020008021D4F804052B1A23F07F43012B08D11B
:10203000FFF740FF0FE00020C7E70F2007F0B2FADC
:10204000E8E725F07F43C4F84035D4F804052D1A9D
:10205000023D2B02ECD44FF48033C4F80433BDE8C6
:10206000788100BFF801002000100140FFFF7F00D1
:1020700000E100E04FF02002EFF3118382F31188BA
:10208000BFF36F8F064AD2F80405064A1268801A19
:1020900020F07F4083F31188BFF36F8F704700BF3C
:1020A00000100140F80100204FF02003EFF31182EF
:1020B00083F31188BFF36F8F0649074B0868D3F885
:1020C000043582F31188BFF36F8F1B1A23F07F430F
:1020D00018447047F80100200010014010B5114C61
:1020E000114AA2610323C4E90433104BE361226661
:1020F0004FF480630E4A0F49236262660023102268
:10210000E01DA3626362E3622367E3666367A2661E
:1021100006F07BFD0849204606F077FD2023A371D9
:1021200010BD00BFFC01002024A70000CD38002016
:10213000BD3800202DA7000031A700002DE9F84F81
:10214000234F4FF0180B14460BFB00720646936AA0
:10215000556AAB42884634D8D2F820A0AAEB0509CC
:1021600009F1FF32944211D84FF0180906FB099388
:102170003B44224658684146284406F06FFD09FB5F
:1021800006762C4474620120BDE8F88F13449C420B
:102190001BD800FB0BBBBB444A46DBF804002C44B5
:1021A000284406F05BFDB4EB0A0406D0DBF804001B
:1021B000224608EB090106F051FD182000FB0676C7
:1021C000E0E7013B5B1BA342CED20020DCE700BF6F
:1021D000FC010020034B182202FB00339A6A586A64
:1021E000801A7047FC0100200A4A0B49936809686D
:1021F000C3F884100949C3F880004B6843F080534A
:102200004B60002383F31188BFF36F8F9368D3F87B
:102210008400704708040020FC9E000000ED00E0F0
:1022200019498A684FF030001044EFF3098C80E8B8
:10223000F01F202080F31188BFF36F8F134F4FF0F2
:1022400000664A6A8A603E60D2F880000023C2F8C5
:10225000803080F3118804B5104600F06DFEBDE8B3
:102260000440D2F88800EFF3148323F0010343EA1B
:10227000000383F31488BFF36F8F02F1300090E8FE
:10228000F01F8CF3098870470804002004ED00E07B
:102290001EF0040F0CBFEFF30880EFF30980816993
:1022A00011F8021CEFF31482032908D012F0010F79
:1022B00001D10229FFD001B506F061FC01BDD0F8C3
:1022C00018800D4981614FF4847C664502D3066015
:1022D00040F2071609488068D0F8881021F0010103
:1022E000C0F88810BFF34F8F22F0010282F31488E8
:1022F000BFF36F8F70470000B52600000804002070
:1023000043B2002B08DB012200F01F0002FA00F0AC
:102310005B09024A42F82300704700BF00E100E079
:1023200043B2002BA8BF03F1604301F10101B8BF24
:10233000064B4FEA4111ACBF03F5614300F00F00BB
:10234000C9B2B4BF195483F80013704714ED00E00C
:10235000DFF8348083B51F46D8F808300446586F3C
:1023600016460D4607F0E8FAD8F8083020305A6EC5
:10237000C3F88C0001921B6E009332463B462946FF
:10238000204600F055F900BF08040020203A10B59F
:1023900022F01F042031221F0A4422F00702C0E964
:1023A00017210699446642F8203C0F4C029B42F8E4
:1023B0001C3C11F0040F039B0C4942F8183C18BF59
:1023C0002146049B42F8143C21F001014FF0807338
:1023D00042F8043C42F8081C0023203AC0E92233AA
:1023E0000265C0F8803010BD51230000257C00003C
:1023F0001D4B10B59C680246002C33D0D4F88C00DD
:10240000E0B1EFF3148313F0010312D112F1160FB0
:1024100005D0A0F12004944206D8904204D9884205
:1024200094BF0021012100E01946002908BF0020C7
:1024300010BD606F884298BF0020F9E712F1160FB7
:10244000236E05D0A3F12004944206D89A4204D208
:1024500099422CBF0021012100E00146002918BF4C
:102460001846E5E72046E3E708040020F8B50646ED
:102470000C4615461F4600F043FD0B4B20352C44FF
:102480009E60304624F0070400F056FD384684F381
:102490000988002163B681F31188BFF36F8F002292
:1024A000002305F0BFFB00BF0804002001491022F3
:1024B0000A60704710ED00E072B6404080F311886A
:1024C000BFF36F8FBFF34F8F30BF62B6BFF36F8F15
:1024D000704700BFF7B506460C4691B306F045FBC2
:1024E0002A4D2B4BED1AED08AD0145F0010778B3ED
:1024F0008B680093D1E900233846264905F09AFEFF
:1025000006F033FB45F0010758B363690093D4E943
:1025100003232149384605F08DFE06F026FB45F0E1
:10252000010338B3E2691D49184605F083FE06F041
:102530001CFB45F0010518B3A2691949284605F0AE
:1025400079FE2146304603B0BDE8F04002F040BBC2
:10255000ADF80070D1E901230E48096805F0CAFE04
:10256000CEE7ADF80070D4E90423E1680A4805F02D
:10257000C1FED2E7E16909481A4605F08EFED6E7AA
:10258000A16907482A4605F088FEDAE7709D000039
:10259000589D000038A7000067A7000096A700001C
:1025A000A5A7000030BFFFF7FDBF00BF0E4A08B56A
:1025B0000E4B22F07F029A60BFF34F8FBFF36F8FF5
:1025C000D3F8882022F47002C3F88820EFF3148334
:1025D00023F0040383F3148802F0A8FB02F0B0FB9D
:1025E00000F05CFC02F0F6FB0000000000ED00E0F3
:1025F00001B572B60B4A106A00281EBF0021116295
:1026000006F027FD62B6EFF30580A0F110004FEA57
:10261000C0000549014409C99847BDE80140034984
:102620000847000008040020D89B0000812E00000D
:1026300086461E488068D0F88C004FF4806C604459
:10264000EC4680F309880EB52DE901101748806823
:1026500000F072FCBDE80110DCF80000DCF804C0FA
:102660002DE901106246494006F023FBBDE8011048
:102670006044BDE80E4080F30988704603B40B48FF
:102680008068D0F8881051F00101EFF3148C5CF0F1
:10269000010CC0F88810BFF34F8F8CF31488BFF380
:1026A0006F8F03BCDFF808C06047000008040020FB
:1026B000257C0000DFF888C0DCF808C0DCF88CC09E
:1026C0000CF5806CBCF1080CCCF800D0CCF804E020
:1026D0008CF3098840F2071C664503D1EC462DE9CE
:1026E000305000E030B4DFF85CC04FEA8606B444F6
:1026F000DCF800C0E047DDF80CE0DDF808C08CF342
:10270000098803B40E488068D0F8881051F00101A0
:10271000C0F88810BFF34F8FEFF3148C5CF0010CFE
:102720008CF31488BFF36F8F03BC4FF000014FF0A0
:1027300000024FF00003C4465CF0010C604700004B
:1027400008040020AC9F000037B54FF0FF33019321
:102750000023C55C1DB18B4201D00133F9E7184657
:10276000002101910199116003B030BD06F0D1FA4A
:10277000202080F3118808484FF40061401880F34E
:102780000988EFF314800221084380F31488BFF313
:102790006F8FFFF70BFF000000400020EFF3088071
:1027A000EFF30981724601B500F056FA01BD00BF92
:1027B000F8B55B4C05460F46164606F001FA594B34
:1027C000E41AE408A40144F00103002875D0564936
:1027D000184605F02FFD554B9B6AD90409D506F024
:1027E000EFF944F0010300286CD05149184605F078
:1027F00021FD4E4B9B6A1A0509D506F0E1F944F01C
:102800000103002863D04B49184605F013FD474BE0
:102810009B6A9B051FD506F0D3F944F001030028FD
:102820005AD04549184605F005FD404B996B9B6A07
:10283000180410D506F0C4F944F00103002850D064
:102840000A4618463D4905F0F5FC27B1374A936A18
:1028500023F400439362354B9B6A590509D506F072
:10286000AFF944F00103002840D03549184605F07F
:10287000E1FC2E4B9A6AD20542D506F0A1F944F04C
:102880000104002837D02F49204605F0D3FC274A01
:10289000936A43F47F4393622B4BAA6923F00103AD
:1028A00093423AD8294B23F00103934235D9284B60
:1028B000AB61012333700020F8BD1B48194605F0B9
:1028C000DFFC88E71A48194605F0DAFC91E7194859
:1028D000194605F0D5FC9AE71748194605F0D0FCD3
:1028E000A3E716481A4605F0D8FCAEE71448194687
:1028F00005F0C6FCBDE71348214605F0C1FCC6E75C
:102900009B6A9B04C3D506F05BF944F0010408B14F
:102910001049B9E70F482146EFE70023CAE700BF97
:10292000709D0000589D0000D3A7000000ED00E05E
:10293000E9A70000FAA700000DA8000026A80000E3
:102940003BA8000056A800005327000055270000B0
:10295000652700006EA8000010B506F031F9454C5F
:10296000454BE41AE408A40144F0010300285ED0BA
:102970004249184605F05EFC414B9B6A9A0109D515
:1029800006F01EF944F00103002855D03D491846D1
:1029900005F050FC3A4B9B6ADB0109D506F010F9B3
:1029A00044F0010300284CD03749184605F042FC9A
:1029B000334B9B6A180309D506F002F944F0010372
:1029C000002843D03149184605F034FC2C4B9B6A53
:1029D000590309D506F0F4F844F0010300283AD071
:1029E0002B49184605F026FC254B9B6A9A0308D50F
:1029F00006F0E6F844F0010390B32649184605F0C6
:102A000019FC1F4B9B6ADB0308D506F0D9F844F08C
:102A1000010450B32049204605F00CFC184A936A83
:102A20006FEA03436FEA13439362002010BD13481B
:102A3000194605F025FC9FE71248194605F020FCD1
:102A4000A8E71148194605F01BFCB1E70F481946E5
:102A500005F016FCBAE70E48194605F011FCC3E76D
:102A60000C48194605F00CFCCBE70B48214605F055
:102A700007FCD3E7709D0000589D00009DA8000052
:102A800000ED00E0B5A80000C8A80000E2A8000022
:102A900000A9000025A900003FA900002DE9F04190
:102AA000604C05468846164606F08AF85E4BE41AE6
:102AB000E408A40144F0010300287CD05B491846D7
:102AC00005F0B8FB5A4B9B6AD80609D506F078F892
:102AD00044F00103002873D05649184605F0AAFBBC
:102AE000534B9B6A190709D506F06AF844F00103B5
:102AF00000286AD05049184605F09CFB4C4B9B6A55
:102B00009A0772D506F05CF844F00103002861D002
:102B10004A49184605F08EFB454B5F6B9B6A1B06C6
:102B200012D506F04DF844F00103002857D044496F
:102B30003A46184605F07EFBB8F1000F04D03C4A37
:102B4000936A23F080039362394B9B6AD80709D5B7
:102B500006F036F844F00103002849D039491846F8
:102B600005F068FB324B9B6A990609D506F028F8F8
:102B700044F00104002840D03349204605F05AFBB8
:102B80002B4B9A6AD2063DD40020294A936A43F01F
:102B9000FF0393622D4BAA6923F0010393423ED8B1
:102BA0002B4B23F00103934239D92A4BAB6101230C
:102BB0003370BDE8F0811D48194605F061FB81E7DF
:102BC0001C48194605F05CFB8AE71B48194605F0CE
:102BD00057FB93E71948194605F052FB9CE7184844
:102BE0001A46394605F059FBA6E76FF01507ABE723
:102BF0001448194605F044FBB4E71348214605F094
:102C00003FFBBDE75B681B05BED529463846FFF78D
:102C1000EFFB0028B8D080F309880220B5E7002335
:102C2000C6E700BF709D0000589D00006AA9000023
:102C300000ED00E080A90000FAA70000B3A90000A1
:102C4000CBA90000E1A900006EA8000053270000F6
:102C500055270000652700002DE9F041764B5D689F
:102C60008AB00E46C5F30808002787F31188BFF322
:102C70006F8F02F07F43B3F17F4F12D102F00C034C
:102C8000082B15D105F09CFF6C4B6D4A9B1ADB0895
:102C90009B0143F0010330B16A49184605F0CAFAB6
:102CA00000273E4608E06748194605F0E9FAF7E7CD
:102CB000120701D40646012700238DF80730A8F13A
:102CC0000303092B00F29080DFE803F005767A59C0
:102CD0008E8E8E8E8E7E05F073FF584D584BED1AFA
:102CE000ED08AD0145F00103B0B15749184605F0B4
:102CF000A1FA00238DF807304F4BDC6A14F0020470
:102D000014D005F05DFF45F0010550B14F4928464C
:102D100005F090FA002435E04B48194605F0B0FA6A
:102D2000E7E74A48294605F0ABFAF3E7DB6A5B00C0
:102D300028D505F045FF45F0010568B1444928460E
:102D400005F078FA434B1B785BB10DF107020121C6
:102D50003046FFF7A3FE14E03D48294605F090FAFF
:102D6000F0E73D4B1B7833B10DF1070201213046EE
:102D7000FFF71EFD05E0394B1B889BB213B1FFF72F
:102D8000EBFD04469DF807309BB92022314602A88E
:102D900005F064FF099B002F49D0C3F3080222B954
:102DA0006FEA53236FEA4323099302A92046FFF7F2
:102DB00091FB0AB0BDE8F0810DF107020021C7E7E1
:102DC0000DF107020021D2E705F0FAFE1B4B1C4A69
:102DD0009B1ADB089B0143F0010310B12049184600
:102DE00096E71F4819469EE705F0EAFE134C144B80
:102DF000E41AE408A40144F0010405F4F875A8F10C
:102E0000100250B117491346174A2046002D08BF3B
:102E10000A46164905F00EFA7CE713481149234685
:102E2000002D18BF0146114805F04BFA72E723F454
:102E3000FF7323F00103B7E700ED00E0709D000091
:102E4000589D00002EAA000059AA000070AA000098
:102E500091AA000028ED00E029ED00E02AED00E055
:102E6000B0AA000000AA000015AA0000E6AA00000F
:102E7000024A536943F010035361704700ED00E0CC
:102E8000044B9968586A884203D003494FF0805236
:102E90000A6070470804002004ED00E004480023A5
:102EA0002021C2180133302B82F80013F9D170476A
:102EB00000E100E038B504464FF02003EFF3118540
:102EC00083F31188BFF36F8F02F012FE0A4B9B68E9
:102ED000A3420BD1094B5A68C2F3080212B9284623
:102EE000FFF782F95A6842F080525A602846BDE8DE
:102EF000384006F002BA00BF0804002000ED00E0F0
:102F00001FB5084B0193084B0293084B039301AB89
:102F10000093074A074B0121684600F069F905B0A4
:102F20005DF804FB000000200000000000000B061C
:102F30000000002000000420F0B5044699B005F020
:102F400049FE216FD1B105F045FE91F8C86005F04A
:102F500041FE0A4601F1C007002153685BB14D1CD8
:102F600005F038FE18AB03EB8101EDB2013E41F8EC
:102F7000482C294602D00C32BA42EED105F02AFE86
:102F8000D4F88C00236E10B3626E656F13445B1B24
:102F9000CDE900530F4B029318AB4E1C03EB81019C
:102FA000A0F1200341F848DCF1B203930A4B202240
:102FB000CDE9042318AB03EB8103013103AAC9B2A5
:102FC00006A843F8482C00F053F919B0F0BD203B97
:102FD000EBE700BF00000B1300000B15034B9B68D1
:102FE000834201D1FFF7A8BF704700BF080400204B
:102FF0004FF02003EFF3118283F31188BFF36F8F3B
:10300000044B9860186982F31188BFF36F8F00F04A
:103010000100704790ED00E038B5044605F0EBFD87
:10302000D1E90053202B896820D9B3F1004F1FD874
:10303000013BB3FA83F3C3F11F035B00072C41EAA2
:10304000030221461BD905F0D6FD154B154A9B1AE4
:10305000DB089B0143F0010360B113492246184687
:1030600005F0E8F86FF01501084638BD0823E5E7DC
:103070003E23E3E70C481A4605F00FF9F2E705F0A6
:10308000BAFD25F01F050948254345F0100542F01B
:1030900001028460C560026105F0ADFDE4E700BF98
:1030A000689D0000589D0000FDAA000090ED00E022
:1030B000034B05225A60BFF34F8FBFF36F8F7047EA
:1030C00090ED00E0BFF35F8F014B00225A60704724
:1030D00090ED00E01549F8B50C68082C22D8144D85
:1030E00005F089FD0C26FFF7EDFF0022944205D183
:1030F000104B1C70FFF7DCFF0020F8BD06FB02F34D
:103100004868AA60C718C35823F01F03134343F04D
:103110001003EB60BB6843F001032B6105F06BFD0E
:103120000132E3E74FF0FF30E7E700BF549E0000B5
:1031300090ED00E0CD3C0020024B1878C0F1080073
:10314000704700BFCD3C00202DE9F0410029274EFB
:1031500001F1FF350446174608BF002507214FF04F
:1031600001080846FFF744FF002837D04FF020033E
:10317000EFF3118083F31188BFF36F8FB160F268B2
:10318000336980F31188BFF36F8F601926D222F064
:103190001F02944222D3C3F34403013308FA03F31A
:1031A000013A1344834219D34FF02003EFF3118205
:1031B00083F31188BFF36F8FB160336982F3118895
:1031C000BFF36F8F190EC3F3026367B1033B59421C
:1031D0005941B1FA81F14909494201E00139C0D2AE
:1031E0000846BDE8F08101F00201F2E790ED00E051
:1031F000F8B51B4C074620780E460025B54211DA7B
:1032000057F825104B6843B35A1E13420CD11F2B9D
:103210000AD90B681A4207D1C0B2FFF7FDFE10F1C0
:10322000160F19D12070F8BD05F0E5FC0D4B0E4AC4
:103230009B1ADB089B0143F0010338B10B492A4676
:10324000184604F0F7FF6FF01500EBE707481A4641
:10325000294605F022F8F6E701300135CEE700BF38
:10326000CD3C0020689D0000589D000023AB00006D
:1032700070B5104B064618780D460024AC4207DBAB
:1032800010F1160F03D00C4A002107280DDD70BD88
:1032900056F824104A6832B1C0B2FFF7BDFE10F1F3
:1032A000160FF4D001300134E8E79060116101306D
:1032B000EBE700BFCD3C002090ED00E0014B186033
:1032C000704700BFA8560020022902D1024B1B689C
:1032D00018474FF0FF307047A8560020024B029A63
:1032E0009B689A67FFF7F0BF08040020022B2DE9C6
:1032F000F84306460C46154615D1B2B181B1DFF848
:1033000030901746B0462644D9F8003018F8010B23
:103310009847013003D04645F6D1013FF2D1EC1B6E
:103320002046BDE8F8830024FAE71446F8E700BF1A
:10333000A85600202DE9F0471C462D4B86B0894643
:1033400092469A6810999167AAFB096705469846C4
:10335000CFB93A46314605F04CFC00283FD005F085
:10336000CBFC244C244BE41AE408A401234B44F086
:10337000010440B3CDE90063214A22492B4620468F
:1033800004F058FF11E005F0B7FC1A4C1A4BE41A90
:10339000E408A40144F0010460B1194A1A49CDF8C7
:1033A00000905346204604F045FFD8F80830986F47
:1033B00005F0F1FB12491448ADF800404B46524667
:1033C00004F098FFF1E70E4A0E48CDE90225CDE959
:1033D00004630422234602A904F0A8FFE5E723467C
:1033E000524649462846FFF781FF06B0BDE8F08700
:1033F00008040020709D0000589D00008CAA000069
:103400007AAB0000FDA3000046AB00004FF02003A4
:10341000EFF3118283F31188BFF36F8F0649012305
:10342000C1F840354FF08041C1F8783582F31188FA
:10343000BFF36F8F0020704700E0014020B1034BC5
:10344000800143F001031847704700BFB09D0000A2
:1034500008B5094B1A786AB90121197006200521AF
:10346000FEF75EFF0620FEF74BFF044B4FF00042D5
:10347000C3F80423002008BDCE3C002000600040BB
:103480002D4BF0B546682D481340834245D00DD8EA
:10349000062B15D005D89BB1022B40D06FF015003C
:1034A0003AE0B3F5801FF9D1012309E024488342B3
:1034B00037D0B3F5A00F36D0B3F5800FEED102238D
:1034C000D00654BFC2F34015032582F480749705DB
:1034D000C2F34020C4F3002407D512F4006F7768CC
:1034E00023D001228A40C7F80825327A01F01F0153
:1034F00041EA42111F2940EA4402C6BF01F01F0100
:10350000104E4FF0A04642EA032301F5E07143EA72
:10351000850346F821300020F0BD0723D0E70423BF
:10352000CEE70523CCE70323CAE7520542BF0122B9
:103530008A40C7F80C25D8E70600F0000600100006
:1035400002004000000300501F288ABF074B4FF0C5
:10355000A04300F01F0003EB8000D0F8003723F4F5
:10356000403343EA0141C0F80017704700030050A0
:10357000F7B54368C668187A01F01F040D4649493B
:10358000D1F8042344EA4014D2B2002303F5A27018
:1035900051F82000C0F3052084426DD122FA03F0D7
:1035A000C00769D59A0002F1804202F5C042D2F804
:1035B000100520F00100C2F81005012202FA03F301
:1035C000C1F8083320460021FFF7BEFFF368EB4047
:1035D00013F001004ED03369EB4013F0010049D0E5
:1035E000B369EB4013F0010250D0F3692D4FEB406B
:1035F000DB075FBF716921FA05F505F00105C5F12B
:10360000020554BFEDB20325002606F5A27357F854
:10361000230010F0030033D1B20002F1804202F522
:10362000C0422402D2F8101521F44F3121F4407128
:10363000C2F81015D2F8101504F47C5444EA05457C
:103640000D4306F14001890089B201F1804101F585
:10365000C041C2F810550860096801910199D2F87B
:10366000101541F00101C2F81015012202FA06F608
:10367000C7F8046303B0F0BD0133082B86D1A1E77E
:103680000136082EC1D16FF01200F3E77169E940ED
:1036900001F00101C1F103012046C9B2FFF754FF57
:1036A0001046E7E700600040B2F5A03F70B4C46880
:1036B00016D145682E7A01F01F0545EA46151F2DE3
:1036C000C6BF05F01F051E4E4FF0A04605F5E0757C
:1036D00056F82550ED0707D56FF0220070BC7047F3
:1036E000B2F5005FE56826D0E66801258D403543D8
:1036F0002669E56001258D40B2F5005F14BF2E43B9
:10370000AE432661A669B2F5A03FE2690CBF2E4325
:10371000AE43B3F5C02F0CBF2A43AA43E2616269EE
:10372000A661B3F5802F0CBF154322EA050565613C
:1037300070BCFFF71DBF01268E4025EA0605D7E7BE
:1037400000030050F0B5002685B0CDE90266284D93
:103750002C685CB1274805F04BFB0290264805F029
:1037600047FB03902E602B680093009B234D0022A3
:1037700001269446D5F8043306FA02F119421DD009
:10378000910001F1804101F5C2410B68B3B102F52E
:10379000A27304AF55F82330C1F800C0C3F3403022
:1037A00007EB8000C3F3042350F8087C06FA03F308
:1037B0003B4340F8083C0B680193019B0132082A07
:1037C000D8D1029911B10B4805F0F7FA039911B15C
:1037D000094805F0F2FA44B1064805F03BFB0648FB
:1037E00005B0BDE8F04005F035BB05B0F0BD00BF49
:1037F0007C610040145700202457002000600040E6
:103800002DE9F341264DAB6890460A9A9A67044623
:10381000CFB2FCF775FC214605F055FB40B305F02F
:1038200048FB204B204A9B1ADB089B0143F0010315
:1038300040B11E4A1E49184604F0FCFCAB68986F64
:1038400005F0A9F919491A481A4604F026FDF5E7CA
:10385000184A16491848ADF80040334604F04AFDAE
:10386000ECE742463946204602B0BDE8F041184731
:10387000A6683368002BF4D105F01BFB094C0A4BFA
:10388000E41AE408A40144F001040028E0D0094B44
:10389000064A09490096204604F0CCFCCEE700BF5A
:1038A00008040020709D0000589D000095AD0000A8
:1038B000A2AB0000C9AB0000D7AB000070B53B4D18
:1038C00086B0AB680C9A9A6704460E46FCF718FC63
:1038D000214605F0F8FA002850D005F0EAFA344BFA
:1038E000344A9B1ADB089B0143F0010340B1324A82
:1038F0003249184604F09EFCAB68986F05F04BF90E
:103900002D492E481A4604F0C8FCF5E713462A490B
:103910002B4A2C48ADF8004004F0ECFCECE72649BB
:103920002948CDE90216CDE9042302A9234604F073
:10393000FDFCE1E7A36831465B682046984706B086
:1039400070BD01220421304605F053F90028F1D062
:1039500005F0AFFA164C174BE41AE408A4011B4B10
:1039600044F0010404220028D9D0CDE900231649EF
:10397000114A3346204604F05DFCBDE7A268536857
:10398000002BDED105F095FA094C0A4BE41AE40845
:10399000A40144F001040028B8D00092084B064A64
:1039A0000849204604F046FCA6E700BF08040020B2
:1039B000709D0000589D0000A8AD0000A2AB000063
:1039C00020AC0000D7AB0000FDA3000054A4000011
:1039D0002DE9F341264DAB6890460A9A9A67044652
:1039E0000F46FCF78DFB214605F06DFA40B305F05C
:1039F00060FA204B204A9B1ADB089B0143F001032D
:103A000040B11E4A1E49184604F014FCAB68986F7A
:103A100005F0C1F819491A481A4604F03EFCF5E7CA
:103A2000184A16491848ADF80040334604F062FCC5
:103A3000ECE742463946204602B0BDE8F04118475F
:103A4000A668B368002BF4D105F033FA094C0A4B91
:103A5000E41AE408A40144F001040028E0D0094B72
:103A6000064A09490096204604F0E4FBCEE700BF71
:103A700008040020709D0000589D0000C1AD0000AA
:103A8000A2AB00002DAC0000D7AB000073B5254DF4
:103A9000089AAB6804469A670E46FCF731FB21464C
:103AA00005F011FA38B305F004FA1F4B1F4A9B1AB0
:103AB000DB089B0143F0010340B11D4A1D49184634
:103AC00004F0B8FBAB68986F05F065F81849194821
:103AD0001A4604F0E2FBF5E713461549164A174863
:103AE000ADF8004004F006FCECE73146204602B099
:103AF000BDE870401847A268D368002BF5D105F0E7
:103B0000D8F9094C094BE41AE408A40144F0010473
:103B10000028E1D00092084B054A0849204604F0ED
:103B200089FBCFE708040020709D0000589D00002D
:103B3000C1AC0000A2AB000041AC0000D7AB00005C
:103B400073B5254D089AAB6804469A670E46FCF794
:103B5000D7FA214605F0B7F938B305F0AAF91F4B9B
:103B60001F4A9B1ADB089B0143F0010340B11D4A29
:103B70001D49184604F05EFBAB68986F05F00BF822
:103B8000184919481A4604F088FBF5E71346154909
:103B9000164A1748ADF8004004F0ACFBECE731469C
:103BA000204602B0BDE870401847A2681369002B98
:103BB000F5D105F07EF9094C094BE41AE408A4019B
:103BC00044F001040028E1D00092084B054A08495E
:103BD000204604F02FFBCFE708040020709D000072
:103BE000589D0000DFAC0000A2AB000053AC000009
:103BF000D7AB000073B5254D089AAB6804469A67A9
:103C00000E46FCF77DFA214605F05DF938B305F064
:103C100050F91F4B1F4A9B1ADB089B0143F001031D
:103C200040B11D4A1D49184604F004FBAB68986F6B
:103C300004F0B1FF184919481A4604F02EFBF5E7C5
:103C400013461549164A1748ADF8004004F052FBD8
:103C5000ECE73146204602B0BDE870401847A26844
:103C60005369002BF5D105F024F9094C094BE41AEE
:103C7000E408A40144F001040028E1D00092084BBC
:103C8000054A0849204604F0D5FACFE70804002089
:103C9000709D0000589D0000FFAC0000A2AB00002A
:103CA00067AC0000D7AB0000F7B52F4DAB681446EA
:103CB0000A9A9A670646CFB2FCF722FA314605F017
:103CC00002F9002836D005F0F4F8284B284A9B1A50
:103CD000DB089B0143F0010340B1264A2649184600
:103CE00004F0A8FAAB68986F04F055FF2149224808
:103CF0001A4604F0D2FAF5E713461E491F4A204837
:103D0000ADF8004004F0F6FAECE7230407D5F268BA
:103D100001231268BB40134218BF84F4C02404F48A
:103D2000C02304F4B03239463046F44603B0BDE84F
:103D3000F0406047B268D2F818E0BEF1000FE4D15D
:103D400005F0B7F8094C0A4BE41AE408A40144F062
:103D500001040028D0D00092084B064A08492046AA
:103D600004F068FABEE700BF08040020709D000060
:103D7000589D00001CAD0000A2AB000078AC000014
:103D8000D7AB000073B5254D089AAB6804469A6717
:103D9000CEB2FCF7B5F9214605F095F838B305F039
:103DA00088F81F4B1F4A9B1ADB089B0143F0010355
:103DB00040B11D4A1D49184604F03CFAAB68986FA3
:103DC00004F0E9FE184919481A4604F066FAF5E7C6
:103DD00013461549164A1748ADF8004004F08AFA10
:103DE000ECE73146204602B0BDE870401847A268B3
:103DF000136A002BF5D105F05CF8094C094BE41A65
:103E0000E408A40144F001040028E1D00092084B2A
:103E1000054A0849204604F00DFACFE708040020BF
:103E2000709D0000589D000040AD0000A2AB000056
:103E300090AC0000D7AB000073B5254D089AAB6875
:103E400004469A67CEB2FCF75BF9214605F03BF8D1
:103E500038B305F02EF81F4B1F4A9B1ADB089B0155
:103E600043F0010340B11D4A1D49184604F0E2F930
:103E7000AB68986F04F08FFE184919481A4604F091
:103E80000CFAF5E713461549164A1748ADF80040F5
:103E900004F030FAECE73146204602B0BDE870404D
:103EA0001847A268536A002BF5D105F002F8094CB7
:103EB000094BE41AE408A40144F001040028E1D00D
:103EC0000092084B054A0849204604F0B3F9CFE7B1
:103ED00008040020709D0000589D00005CAD0000AB
:103EE000A2AB0000A0AC0000D7AB000037B5244D5A
:103EF000089AAB6804469A67FCF702F9214604F079
:103F0000E2FF30B304F0D5FF1E4B1F4A9B1ADB08BB
:103F10009B0143F0010340B11C4A1D49184604F0BF
:103F200089F9AB68986F04F036FE184918481A46AC
:103F300004F0B3F9F5E713461449164A1648ADF8EC
:103F4000004004F0D7F9ECE7204603B0BDE830406C
:103F50001847A268936A002BF6D104F0AAFF094C17
:103F6000094BE41AE408A40144F001040028E2D05B
:103F70000092084B054A0849204604F05BF9D0E757
:103F800008040020709D0000589D000079AD0000DD
:103F9000A2AB0000B1AC0000D7AB0000024BD3F8DD
:103FA0008004C3F8800470470020004070B54B794E
:103FB000012B27D0032B22D110268B79032B1ED166
:103FC000CC7924B1012C1AD143681B78BBB10A7992
:103FD00012B1022A13D10E220B68B3F5164F62D02C
:103FE0002DD8B3F5165F60D016D8B3F5966F5ED0B6
:103FF0000AD8B3F5967F5DD0B3F5167F5DD06FF02C
:1040000022004FE00026D8E7B3F5166F58D0B3F57D
:10401000965FF4D1344B39E0B3F5E14F53D007D874
:10402000B3F5615F51D0B3F5964FE8D12F4B2DE03A
:1040300047F61225AB42E2D14FF4000326E0B3F578
:10404000613F45D011D8B3F5963F43D008D84DF61F
:10405000C025AB4240D0B3F5614FD0D1244B15E021
:10406000B3F5E13FCBD1234B10E0B3F5612F36D050
:1040700007D8214DAB4234D0B3F5E12FBFD11F4B50
:1040800004E01F4DAB42BAD14FF080531D4D344375
:104090002243C5F82435C5F86C25C36803C983E8F5
:1040A0000300002070BD184BF0E7184BEEE74FF40B
:1040B0009E23EBE74FF4A033E8E74FF41C33E5E72A
:1040C0004FF41D23E2E7124BE0E74FF46C13DDE7FA
:1040D000104BDBE7104BD9E74FF46503D6E70F4BE6
:1040E000D4E74FF08063D1E700B0130000A04E008A
:1040F00000F0EB0000E0D70190D0030000705F07F4
:1041000040420F000020004000509D00005027005A
:1041100000F0750000B0AF0300903A0100D0BE0E71
:10412000084B1A6882B052B1002018601B680193D6
:10413000019B054BD3F818350B7002B070474FF058
:10414000FF30FAE70821004000200040F7B50E4696
:1041500005F022FA1B4D88BB64240127BFF35B8F57
:1041600055E8003F002B03D145E80072002AF7D143
:10417000BFF35B8F07D021200021013C01F00AFF33
:1041800014F0FF04EAD1104C002222602268019250
:10419000019A0E4A01211160C2F814654FF47A7633
:1041A000236823B9012004F02DFF013EF8D1084B0C
:1041B00001221A6000232B6003B0F0BD01232B60A5
:1041C000E1E700BFE40200201C210040082000407D
:1041D0000C2000404FF0A04337B5174C4FF0004281
:1041E000C3F80825032100221E25C3F87C17C3F855
:1041F0007827C4F814551F25C4F80C552025C3F89A
:104200000855C3F81417C3F81C270523C4F808354C
:104210000723C168C4F81035FFF7C8FE48B9042366
:10422000C4F80035054B18601B680193019B0123FE
:10423000236003B030BD00BF0020004008210040D3
:10424000F0B54B79012B29D0032B24D110268B7983
:10425000032B20D1CC7924B1012C1CD143681B79CC
:10426000CBB10A7912B1022A15D10E220B6845682A
:10427000B3F5164F2D6864D02DD8B3F5165F63D013
:1042800016D8B3F5966F61D00AD8B3F5967F60D093
:10429000B3F5167F60D06FF0220051E00026D6E71C
:1042A000B3F5166F5BD0B3F5965FF4D1364B3CE0B7
:1042B000B3F5E14F56D007D8B3F5615F54D0B3F5ED
:1042C000964FE8D1314B30E047F61227BB42E2D19E
:1042D0004FF4000329E0B3F5613F47D013D8B3F59D
:1042E000963F46D009D84DF6C027BB4243D0B3F520
:1042F000614FD0D14FF46B0317E0B3F5E13FCAD162
:104300004FF0EB7311E0B3F5612F37D008D8204F91
:10431000BB4236D0B3F5E12FBDD14FF0E86304E0E6
:104320001C4FBB42B7D14FF08053C5F82435C3684A
:1043300003C934432243C5F86C2583E803000020F9
:10434000F0BD4FF41D03F0E7134BEEE74FF49E234F
:10435000EBE74FF4A033E8E74FF41C33E5E74FF405
:104360001D23E2E70D4BE0E70D4BDEE74FF06C73EA
:10437000DBE70C4BD9E74FF46503D6E74FF07063EA
:10438000D3E74FF08063D0E700B0130000A04E00E9
:1043900090D0030040420F000050270000C075007D
:1043A00000F03A0000903A0137B54268134B1468A8
:1043B000C5680422C3F808250322C3F80827002291
:1043C000C3F804272223C4F80C352123C4F814357C
:1043D0002946FFF735FF78B90823C4F80035C4F83B
:1043E0001001D4F810310193019B0C350123C4F85E
:1043F0003455C4F83835236003B030BD0003005095
:1044000037B5244D089AAB6804469A67FBF778FEE7
:10441000214604F0E7FD30B304F0DAFD1E4B1F4ADD
:104420009B1ADB089B0143F0010340B11C4A1D4964
:10443000184603F0FFFEAB68986F04F0ACFB184918
:1044400018481A4603F029FFF5E713461449164A9F
:104450001648ADF8004003F04DFFECE7204603B0EE
:10446000BDE830401847A2689368002BF6D104F0ED
:10447000AFFD094C094BE41AE408A40144F001041F
:104480000028E2D00092084B054A0849204603F074
:10449000D1FED0E708040020709D0000589D000068
:1044A0001FAE0000A2AB0000F9AD0000D7AB0000CA
:1044B00070B53B4D86B0AB680C9A9A6704460E46C1
:1044C000FBF71EFE214604F08DFD002851D004F0BC
:1044D0007FFD344B344A9B1ADB089B0143F00103F8
:1044E00040B1324A3249184603F0A4FEAB68986FD7
:1044F00004F051FB2D492E481A4603F0CEFEF5E795
:1045000013462A492B4A2C48ADF8004003F0F2FE2E
:10451000ECE726492948CDE90423CDE902162346D4
:10452000042202A903F002FFE0E7A36831461B68FA
:104530002046984706B070BD01221146304604F06F
:1045400058FB0028F1D004F043FD164C164BE41A3A
:10455000E408A4011A4B44F0010401220028D8D039
:10456000CDE900231549114A3346204603F062FE87
:10457000BCE7A2681368002BDED104F029FD094CCA
:10458000094BE41AE408A40144F001040028B7D060
:104590000092084B054A0849204603F04BFEA5E768
:1045A00008040020709D0000589D000035AE0000FA
:1045B000A2AB000003AE0000D7AB0000FDA30000DB
:1045C00054A40000F7B5264D0A9AAB6804469A67D2
:1045D000CFB2FBF795FD214604F004FD0646002806
:1045E00033D004F0F5FC1F4B1F4A9B1ADB089B01DC
:1045F00043F0010340B11D4A1D49184603F01AFE5D
:10460000AB68986F04F0C7FA184919481A4603F0C6
:1046100044FEF5E704F0DCFC124C134BE41AE4080A
:10462000A40144F0010438B10092124B0F4A124920
:10463000204603F0FFFDE3E713460C490D4A0E4800
:10464000ADF8004003F056FEDAE7A2685368002B8D
:10465000E0D0204639469847304603B0F0BD00BF51
:1046600008040020709D0000589D000049AE000025
:10467000A2AB00000BAE0000D7AB000070B53E4D02
:1046800086B0AB680C9A9A6704460E46FBF738FD75
:10469000214604F0A7FC002856D004F099FC374BC3
:1046A000374A9B1ADB089B0143F0010340B1354AAE
:1046B0003549184603F0BEFDAB68986F04F06BFAFD
:1046C000304931481A4603F0E8FDF5E713462D4915
:1046D0002E4A2F48ADF8004003F00CFEECE72949C4
:1046E0002C48CDE90423CDE902162346042202A971
:1046F00003F01CFEE0E731462046984706B070BD47
:10470000A3681B69002BF6D16FF02200F6E70122A7
:104710000821304604F06DFA0028F1D004F058FC6E
:10472000164C174BE41AE408A4011B4B44F0010497
:1047300008220028D3D0CDE900231649114A334678
:10474000204603F077FDB7E7A2681369002BDED19E
:1047500004F03EFC094C0A4BE41AE408A40144F0BE
:1047600001040028B2D00092084B064A08492046AE
:1047700003F060FDA0E700BF08040020709D00006A
:10478000589D00005EAE0000A2AB000014AE000019
:10479000D7AB0000FDA3000054A4000070B53E4D4F
:1047A00086B0AB680C9A9A6704460E46FBF7A8FCE5
:1047B000214604F017FC0246002855D004F008FCFE
:1047C000364B374A9B1ADB089B0143F0010340B18B
:1047D000344A3549184603F02DFDAB68986F04F054
:1047E000DAF9304930481A4603F057FDF5E70B4631
:1047F0002E4A2C492E48ADF8004003F07BFDECE733
:1048000028492C48CDE90423CDE902162346042289
:1048100002A903F08BFDE0E731462046984706B039
:1048200070BDA368DB68002BF6D16FF02200F6E7BD
:104830000821304604F0DDF90028F2D004F0C8FB6E
:10484000164C174BE41AE408A4011B4B44F0010476
:1048500008220028D4D0CDE900231649114A334656
:10486000204603F0E7FCB8E7A1680B69002BDFD115
:1048700004F0AEFB094C0A4BE41AE408A40144F02E
:1048800001040028B3D00091084B064A084920468D
:1048900003F0D0FCA1E700BF08040020709D0000D9
:1048A000589D000075AE0000A2AB000014AE0000E1
:1048B000D7AB0000FDA300008CAA00000A4B1B68C8
:1048C0005A1C05BF094B0A4A0A4A10680ABF1B78DE
:1048D0001068C0F30310082B04D103288CBF0020FC
:1048E000012070470020704730010010E00F00F0F9
:1048F000E80F00F034010010064B1B68082B06D1AE
:10490000054B1B68032B02D8044AD05C704700207B
:10491000704700BF30010010340100108BAE000062
:1049200008B5FFF7CBFF40B14FF080430022C3F83A
:104930000C21C3F81021C3F83825FFF7BFFF00286A
:1049400046D04FF08052584BD2F80414C3F82015CB
:10495000D2F80814C3F82415D2F80C14C3F828159B
:10496000D2F81014C3F82C15D2F81414C3F830156B
:10497000D2F81814C3F83415D2F81C14C3F8401533
:10498000D2F82014C3F84415D2F82414C3F84815FB
:10499000D2F82814C3F84C15D2F82C14C3F85015CB
:1049A000D2F83014C3F85415D2F83414C3F8601593
:1049B000D2F83814C3F86415D2F83C14C3F868155B
:1049C000D2F84014C3F86C15D2F84424C3F870250B
:1049D000FFF792FF10B1354B354A1A60FFF78CFF95
:1049E00018B1344BFB22C3F81825FFF785FF48B1F7
:1049F0003149324B0A681B6822F00F0203F00F03A3
:104A000013430B60FFF778FF18B12D4B4FF4007282
:104A10001A60FFF753FF48B14FF08043D3F80024EA
:104A2000D20744BF6FF00102C3F800244FF01023F7
:104A3000D3F80022002A03DBD3F80432002B2FDA4C
:104A4000204B0122C3F80425D3F80024002AFBD010
:104A50004FF010221221C2F80012D3F80024002ACD
:104A6000FBD04FF010231222C3F80422154B1A4634
:104A7000D3F800140029FBD00021C3F80415D2F8A4
:104A80000034002BFBD0BFF34F8F0F490F4BCA6888
:104A900002F4E0621343CB60BFF34F8F00BFFDE72A
:104AA0000B4B0C4A1A6008BD00C000408C560040F9
:104AB0004881030000F00040E40E0040580200105E
:104AC0004096024000E0014000ED00E00400FA05DD
:104AD000C45600200090D003F8B50B4B53F820408B
:104AE0000130002753F82060A64200D8F8BD656861
:104AF00015B1284604F05FFF23682846984708B19F
:104B000005B1AF600834EFE7E89E00000F4B70B5C9
:104B10000F4C05461E469C4204D10D4CB44208D1B0
:104B2000002410E0A26812B12268AA420BD010340F
:104B3000F1E7A3680BB91034F0E72168284604F0C8
:104B400081F80028F7D1204670BD00BF34570020FF
:104B5000D456002000B5094B8DB09B68109A9A6717
:104B600001463022684602F005FE28B96846FFF784
:104B7000CDFF0DB05DF804FB0020FAE7080400202B
:104B8000024B029A9B68D86D9A6770470804002010
:104B900010B50446FCF7D8FA04F048FA094B0A4A63
:104BA0009B1ADB089B0143F0010330B1074918460B
:104BB00003F040FB204604F043FA0448194603F092
:104BC0005FFBF7E7709D0000589D00008FAE00006E
:104BD0002DE9F34105460F464FF02003EFF311880E
:104BE00083F31188BFF36F8F01F05AFA3A4C0646EF
:104BF00004F01CFA394BE41AE408A40144F0010C57
:104C0000002840D0042D96BF354B364B53F8253045
:104C100035490022009260462A4603F00BFB6FB133
:104C2000FB69C3F308034BB104F000FA44F001033D
:104C3000002836D02D49184603F0FCFA04F0F6F9A6
:104C400044F00104002833D0304604F0B0FC68B3CF
:104C50000278274B002A08BF1846FCF70DF92549B2
:104C600003463246204603F0E5FA39462846FFF768
:104C70008FFF88F31188BFF36F8F304602B0BDE815
:104C8000F041FEF717B9042D96BF154B154A53F89E
:104C900025201548ADF800C00023294603F02AFB63
:104CA000BDE71248194603F0EBFAC7E71048D4E70E
:104CB000304604F07CFC68B102780D4B002A08BF36
:104CC0001846FCF7D9F8234602463146094803F056
:104CD000F8FACAE70648F4E7709D0000589D000006
:104CE000009F00009EAE0000B4AE0000DCAE0000ED
:104CF000ACAE0000FDAE000008B50B4D4FF0200239
:104D0000EFF3118382F31188BFF36F8F04F097FCE8
:104D1000012102280446D8BF084604F0A0FC2C62FA
:104D2000FDF7CAFBEAE700BF080400200248034A77
:104D30000021121A03F0BDBF00000020D43C002067
:104D400009480A4A0A4908B5121A03F087FF094AB6
:104D500009490A4803F082FF09480A4A0A49BDE89E
:104D60000840121A03F07ABFA0560020406A0020C3
:104D7000B4B9000000000000B4B900000000002039
:104D80000000002000000020B4B9000008B50C4B62
:104D9000012202201A70FFF79FFE0A4A0A490B48B7
:104DA00002F026FF0320FFF797FE01F095FDFBF7C9
:104DB00009FC074A137B23F00103137308BD00BFEE
:104DC000CF3C002072A600005FAF000080AF000063
:104DD000780300202DE98048ABB0FBF79BFFDFF89C
:104DE000F89089F30888354D354E6B69DFF8ECA0F3
:104DF000DFF8EC80334F43F4007300246B61E02351
:104E000085F82230EC772C766C76AC766B6A43F4BE
:104E1000E0236B62FEF72CF8FDF748FB4FF0FF3301
:104E2000AB62EB62284D229440F20113ADF82430BE
:104E300006ABAB602046CDE91E44FFF74DFE0120D6
:104E4000FFF74AFE4FF0010B00F08EFF1F4B6E6222
:104E50004FF480624146059330465346CDE9034BFB
:104E6000CDE90144009401F099FB737B304623F0B7
:104E70000403737304F07EFA0F23CDE9024314494F
:104E8000144B4FF4A0723846CDE904B4CDE9004488
:104E900001F084FB7B7BEF6023F004037B7305F15F
:104EA0001803C5E906332C75C5F8049053464FF432
:104EB000787241463046FDF7D9FA00BF00ED00E0B8
:104EC00078030020E802002008040020A7AF0000BB
:104ED00000500020F94C0000004800208D4D0000DB
:104EE000004C002070B50F4C0F4DAC4201D3002098
:104EF00070BDD4E9031242EA010313F003030ED19B
:104F0000A0686361834204D1204604F054FD1C3440
:104F1000EBE766691660013362610A44F2E76FF0FD
:104F20001500E5E73457002034570020D3B50C4670
:104F300016461F464FF02003EFF3118183F31188CB
:104F4000BFF36F8F43695BB123601B684361836963
:104F500001338361002081F31188BFF36F8F11E06B
:104F600056EA070203D123606FF00B00F3E7024615
:104F7000CDE90067044800F08FFE18B9034B9B6829
:104F80005B69236002B0D0BDD03C00200804002043
:104F900070B504460D464FF02003EFF3118683F3FE
:104FA0001188BFF36F8F04F05BFA60B12A68426129
:104FB0000021C0F8841004F0DDF931460848BDE84E
:104FC000704004F08FB92B6862691A602B686361C6
:104FD000A369013BA36186F31188BFF36F8F70BD96
:104FE000D03C002038B5154D069AAB6804469A6748
:104FF000FBF786F80122214604F054F8C0B104F012
:1050000047F80F4B0F4A9B1ADB089B0143F0010343
:1050100040B10D4A0D49184603F00CF9AB68986F82
:1050200003F0B9FD084909481A4603F036F9F5E7D7
:105030002046BDE8384004F044B800BF0804002012
:10504000709D0000589D0000AFAF0000A2AB0000B3
:105050002DE9F341044616461F464FF02003EFF3B7
:10506000118883F31188BFF36F8FC368324A6BB125
:1050700080689168884219D056EA070318D188F3EE
:105080001188BFF36F8F6FF00F000CE0916891F9FA
:105090000E1021610133E3609368A36088F31188E7
:1050A000BFF36F8F002002B0BDE8F0812169F0E707
:1050B00090F90E3091F90E109942A8BF194621EAD5
:1050C000E1718B422CDD00F0FBFD0546CDE9006768
:1050D0001A482246414600F0DFFD0028E3D04FF099
:1050E0002003EFF3118683F31188BFF36F8F2368DA
:1050F00021699C4207D033B193F90E309942A8BF81
:10510000194621EAE171A06890F90E30994209D15F
:105110006DB10A48314604F0E5F86FF00A00C2E7C5
:105120000025D3E700F0CCFD0028F2D1F0E786F3AC
:105130001188BFF36F8FF0E708040020D03C0020F7
:105140002DE9F041164DAB681646089A9A67044659
:105150000F46FAF7D5FF0022214603F0A3FFC0B1A6
:1051600003F096FF0F4B104A9B1ADB089B0143F09C
:10517000010340B10D4A0E49184603F05BF8AB68D5
:10518000986F03F008FD094909481A4603F085F8AD
:10519000F5E73A4633462046BDE8F041FFF758BFF1
:1051A00008040020709D0000589D0000C3AF00005F
:1051B000A2AB000038B583680446002B37D01F4AE5
:1051C0009268934236D1DA7B013ADA73C368012BD5
:1051D00005D0013BC36000F0E9FA002038BD4FF074
:1051E0002003EFF3118583F31188BFF36F8F0169FB
:1051F000806890F90E30994201D000F061FD2046A0
:1052000004F02EF9A06060B190F90E202261002216
:10521000C0F8842004F0AEF80948294604F062F88A
:10522000D9E7E06085F31188BFF36F8FD3E76FF0A4
:105230001500D3E74FF0FF30D0E700BF080400208F
:10524000D03C002038B5154D069AAB6804469A67E5
:10525000FAF756FF0022214603F024FFC0B103F005
:1052600017FF0F4B0F4A9B1ADB089B0143F001030A
:1052700040B10D4A0D49184602F0DCFFAB68986F4B
:1052800003F089FC084909481A4603F006F8F5E7D7
:105290002046BDE83840FFF78DBF00BF080400205E
:1052A000709D0000589D0000D7AF0000A2AB000029
:1052B00070B5164E069AB36805469A67FAF720FF4E
:1052C0004FF0FF32294603F06DFF0446C0B103F0F2
:1052D00002FF0F4B0F4A9B1ADB089B0143F00103AF
:1052E00040B10D4A0D49184602F0A4FFB368986F0B
:1052F00003F051FC084909481A4602F0CEFFF5E7D1
:10530000284603F06AFF204670BD00BF0804002055
:10531000709D0000589D00004AB00000A2AB000044
:1053200070B5154E069AB36805469A67FAF7E8FE17
:105330000022294603F036FF0446C0B103F0CBFE3D
:105340000E4B0F4A9B1ADB089B0143F0010340B14F
:105350000C4A0D49184602F06DFFB368986F03F0D0
:105360001AFC084908481A4602F097FFF5E7284654
:1053700003F03CFF204670BD08040020709D000033
:10538000589D00005EB00000A2AB000070B5164E44
:10539000069AB36804469A670D46FAF7B1FE0022F2
:1053A000214603F0FFFEC0B103F095FE0F4B104AFB
:1053B0009B1ADB089B0143F0010340B10D4A0E49E3
:1053C000184602F037FFB368986F03F0E4FB094911
:1053D00009481A4602F061FFF5E729462046BDE874
:1053E000704003F01EBF00BF08040020709D000045
:1053F000589D000079B00000A2AB000070B5164EB9
:10540000069AB36804469A670D46FAF779FE0022B9
:10541000214603F0C7FEC0B103F05DFE0F4B104AFA
:105420009B1ADB089B0143F0010340B10D4A0E4972
:10543000184602F0FFFEB368986F03F0ACFB094911
:1054400009481A4602F029FFF5E729462046BDE83B
:10545000704003F0EBBE00BF08040020709D000008
:10546000589D000095B00000A2AB0000F7B51646AD
:105470001F464FF02003EFF3118583F31188BFF32C
:105480006F8F04689CB12368426823F00303944241
:10549000036008BF43600121204603F092FE0446EA
:1054A00085F31188BFF36F8F204603B0F0BD56EA35
:1054B0000703F5D000F10802CDE900672946104640
:1054C00000F0EAFB0028EFD1014B9B685C69EBE739
:1054D000080400202DE9F041164DAB681646089AE5
:1054E0009A6704460F46FAF70BFE0022214603F0A6
:1054F00059FEC0B103F0EFFD0F4B104A9B1ADB08B9
:105500009B0143F0010340B10D4A0E49184602F0D9
:1055100091FEAB68986F03F03EFB094909481A46B3
:1055200002F0BBFEF5E73A4633462046BDE8F041BF
:10553000FFF79CBF08040020709D0000589D0000EC
:10554000EDAF0000A2AB000038B5154D069AAB6870
:1055500004469A67FAF7D4FD0022214603F022FEA2
:10556000C0B103F0B8FD0F4B0F4A9B1ADB089B013B
:1055700043F0010340B10D4A0D49184602F05AFEAE
:10558000AB68986F03F007FB084909481A4602F018
:1055900084FEF5E72068B0FA80F0400938BD00BF0E
:1055A00008040020709D0000589D000000B000001D
:1055B000A2AB000038B5154D069AAB6804469A6751
:1055C000FAF79EFD2146002203F0ECFD0146C0B132
:1055D00003F081FD0E4B0F4A9B1ADB089B0143F041
:1055E000010340B10C4A0D49184602F023FEAB6896
:1055F000986F03F0D0FA084908481A4602F04DFEA9
:10560000F5E72068BDE8384003F0DBBD0804002062
:10561000709D0000589D000018B00000A2AB000073
:1056200038B5154D069AAB6804469A67FAF768FDD7
:105630002146002203F0B6FD0146C0B103F04BFD48
:105640000E4B0F4A9B1ADB089B0143F0010340B14C
:105650000C4A0D49184602F0EDFDAB68986F03F057
:105660009AFA084908481A4602F017FEF5E76068FA
:10567000BDE8384003F0A5BD08040020709D00007F
:10568000589D000031B00000A2AB000010B5084CDE
:1056900023685BB1FCF7EEFC03462068054A03442F
:1056A000BDE810401361002103F0D9BF10BD00BF59
:1056B0004004002008040020F8B505460C464FF0D1
:1056C0002003EFF3118683F31188BFF36F8F0D4B27
:1056D00000224FF4004740F2E73000211A61E7FB57
:1056E00005014FF47A720023FAF78AFD064B186021
:1056F000064B1C60FFF7CAFF86F31188BFF36F8F5C
:10570000F8BD00BF08040020400400203C04002035
:105710004FF02003EFF3118183F31188BFF36F8FF4
:10572000044B9A68D37B013BD37381F31188BFF399
:105730006F8F704708040020094B03F12802824252
:1057400005D19B688B4202D14B7BDB0606D1D1E9A8
:10575000003213605A600023C1E90033704700BF74
:105760000804002070B5104C064604F1280003F030
:10577000F7FDA368597B0546880644BF41F0080140
:10578000597305B9E5684EB95A7BD20606D1AA69A4
:1057900022B9DA897F2A01D9636270BDAB4201D098
:1057A000FFF774FF6562F8E70804002010B54FF0BA
:1057B0002003EFF3118483F31188BFF36F8F084B3D
:1057C0009A68D37B0133D3730020FFF7CBFF84F3B8
:1057D0001188BFF36F8FBDE8104003F09ABD00BF82
:1057E0000804002070B4437BDB062AD1836943BBE5
:1057F000154A114651F8284F8C4218BF2346002BFA
:10580000D46A38BF0023B3B190F90E6093F90E50FB
:10581000AE4203DBA3420ED01B68F4E75A68C0E92E
:10582000003210605860437B63F07F03437370BCA9
:105830000020FFF797BFC0E90014D36A1860D06258
:10584000F1E770BC704700BF0804002010B54FF0AE
:105850002002EFF3118482F31188BFF36F8F427B34
:10586000510704D484F31188BFF36F8F10BD22F069
:1058700004024273FFF7B6FF21460248BDE810401C
:1058800003F030BDD03C002010B54FF02002EFF304
:10589000118482F31188BFF36F8F427B22F01002D4
:1058A0004273FFF79FFF21460248BDE8104003F016
:1058B00019BD00BFD03C002070B5154E069AB368E4
:1058C00005469A67FAF71CFC294603F0D2FC044609
:1058D000C0B103F0B0FC0F4B0F4A9B1ADB089B01D1
:1058E00043F0010340B10D4A0D49184602F0A2FCF5
:1058F000B368986F03F04FF9084909481A4602F057
:10590000CCFCF5E72846FFF7BFFF204670BD00BF7F
:1059100008040020709D0000589D000066B1000042
:10592000A2AB0000F8B501464FF02003EFF311845D
:1059300083F31188BFF36F8F90F90D30002B02DADB
:105940001948FFF7F9FE194A1046D56A50F8283F62
:10595000834208BF0023002B38BF0023EBB191F92D
:105960000E7093F90E60B74203DB9D4215D01B68A1
:10597000F4E75868C1E90030016059604B7B9068DA
:1059800063F07F034B73431A58425841FFF7EAFE16
:1059900084F31188BFF36F8FF8BDC1E90005D36AA6
:1059A0001960D162EAE700BF30040020080400203B
:1059B00038B5154A154B146801469868A0421C4634
:1059C00003D1BDE83840FFF761BE00251560104ADD
:1059D0001268B2B1C2897F2A13D80E4A90F90E50CC
:1059E000126895420DDB0C4A90420AD0826942B996
:1059F0001A698A4202DCFFF795FFE2E7521A1A6140
:105A000038BD00232361FBE7380400200804002090
:105A1000400400203C040020E802002070B5044649
:105A2000183003F0E6FD4FF02003EFF3118683F307
:105A30001188BFF36F8F94F90D30002B07DA0F48F0
:105A40002146FFF779FE637B03F07F0363730C4D00
:105A5000637BA86843F010036373031B58425841EB
:105A6000FFF780FE86F31188BFF36F8FAB68A34208
:105A700003D1BDE8704003F04CBC70BD3004002081
:105A80000804002070B5154E069AB36805469A675B
:105A9000FAF736FB294603F0ECFB0446C0B103F0ED
:105AA000CAFB0F4B0F4A9B1ADB089B0143F0010313
:105AB00040B10D4A0D49184602F0BCFBB368986F1F
:105AC00003F069F8084909481A4602F0E6FBF5E7D1
:105AD0002846FFF7A3FF204670BD00BF0804002042
